:100000000C9464000C948C000C948C000C943804B8
:100010000C9438040C9438040C948C000C94140345
:100020000C948C000C948C000C948C000C948C0020
:100030000C948C000C948C000C948C000C948C0010
:100040000C94EE030C948C000C94BC030C9496035B
:100050000C948C000C948C000C948C000C948C00F0
:100060000C948C000C948C000000000024002700ED
:100070002A0000000008000201000003040700003D
:100080000000000000000200000000250028002BF6
:1000900000000000002300260029000404040404DA
:1000A0000404040202020202020303030303030125
:1000B00002040810204080010204081020010204FC
:1000C00008102000B204E00611241FBECFEFD8E0D4
:1000D000DEBFCDBF22E0ACE2B1E001C01D92A5378A
:1000E000B207E1F711E0A0E0B1E0E6E3F3E102C01E
:1000F00005900D92AC32B107D9F710E0C3E6D0E01D
:1001000004C02197FE010E947C07C236D107C9F7BF
:100110000E947E050C948E090C940000CF92DF9211
:10012000EF92FF920F931F93CF93DF936C017A01AD
:100130008B01C0E0D0E0CE15DF0589F0D8016D91CC
:100140008D01D601ED91FC910190F081E02DC60169
:100150000995892B11F47E0102C02196ECCFC701CD
:10016000DF91CF911F910F91FF90EF90DF90CF9093
:100170000895FC01538D448D252F30E0842F90E0AD
:10018000821B930B541710F0CF9608950197089592
:10019000FC01918D828D981761F0828DDF01A80F8F
:1001A000B11D5D968C91928D9F5F9F73928F90E0B1
:1001B00008958FEF9FEF0895FC01918D828D981720
:1001C00031F0828DE80FF11D858D90E008958FEF5D
:1001D0009FEF0895FC01918D228D892F90E0805C26
:1001E0009F4F821B91098F73992708958BE891E0A7
:1001F0000E94EA0021E0892B09F420E0822F089573
:10020000FC01848DDF01A80FB11DA35ABF4F2C91B3
:10021000848D90E001968F739927848FA689B78982
:100220002C93A089B1898C9180648C93938D848D5B
:10023000981306C00288F389E02D80818F7D80832A
:100240000895EF92FF920F931F93CF93DF93EC01EA
:1002500081E0888F9B8D8C8D981305C0E889F98982
:10026000808185FD24C0F62E0B8D10E00F5F1F4F9F
:100270000F731127E02E8C8DE8120CC00FB607FC0F
:10028000FACFE889F989808185FFF5CFCE010E94F8
:100290000001F1CF8B8DFE01E80FF11DE35AFF4FF6
:1002A000F0820B8FEA89FB898081806207C0EE892A
:1002B000FF896083E889F98980818064808381E097
:1002C00090E0DF91CF911F910F91FF90EF900895F3
:1002D000CF93DF93EC01888D8823C9F0EA89FB89ED
:1002E000808185FD05C0A889B9898C9186FD0FC0E4
:1002F0000FB607FCF5CF808185FFF2CFA889B989B9
:100300008C9185FFEDCFCE010E940001E7CFDF91F8
:10031000CF91089580E090E0892B29F00E94F600AB
:1003200081110C940000089590E0FC01EE58FF4FFD
:100330003491FC01E155FF4F2491FC01E556FF4F3C
:10034000E491EE2309F43BC0332339F1333091F0CB
:1003500038F43130A9F0323001F584B58F7D12C008
:10036000373091F03830A1F03430B9F4809180000A
:100370008F7D03C0809180008F77809380000DC0B7
:1003800084B58F7784BD09C08091B0008F7703C09A
:100390008091B0008F7D8093B000F0E0EE0FFF1FE2
:1003A000E957FF4FA591B4918FB7F894EC91611183
:1003B00003C020952E2301C02E2B2C938FBF0895B0
:1003C000CF93DF9390E0FC01E155FF4F2491FC01B6
:1003D000E556FF4F8491882361F190E0880F991FC3
:1003E000FC01E859FF4FC591D491FC01E957FF4F3B
:1003F000A591B491611109C09FB7F89488812095A7
:1004000082238883EC912E230BC0623061F49FB766
:10041000F8943881822F809583238883EC912E2B4A
:100420002C939FBF06C08FB7F894E8812E2B2883AA
:100430008FBFDF91CF91089520918101309182018A
:100440002817390771F490917F01809180019817E6
:1004500041F0E0917F01F0E0EA5CFE4F808190E0A6
:1004600008958FEF9FEF089508951F93CF93DF9323
:10047000DC015C962D913C915D972115310539F495
:1004800081E090E013969C938E9312973DC0519615
:10049000ED91FC91529750969C915097892F8095A1
:1004A0001FB75E964C915E9741FB772770F941FD2F
:1004B0006095F8944081772311F0492B01C04823BF
:1004C0004083E9012197F1F748E0508160FF02C0C5
:1004D000592B01C058235083E9012197F1F7669504
:1004E000415099F7772321F090818923808303C0BD
:1004F0008081982B90831FBF5C968D919C915D9716
:100500000197F1F721E030E0C901DF91CF911F9110
:10051000089520918101309182012817390771F4E3
:100520008091800120917F0190E0805C9F4F821B31
:10053000910960E470E00E945407089580E090E023
:100540000895209181013091820128173907B9F46B
:1005500090917F0180918001981789F0E0917F014F
:10056000F0E0EA5CFE4F808120917F0130E02F5F58
:100570003F4F2F73332720937F0190E008958FEF33
:100580009FEF0895089580E090E00895EF92FF9224
:100590000F931F93CF93DF93EC01198218821B8274
:1005A0001A821D821C8261157105A9F17B01FB0174
:1005B00001900020E9F731978F01061B170BB80156
:1005C0006F5F7F4F80E090E00E94AF08009759F086
:1005D000998388831B830A832C813D81232B81F49B
:1005E000FC0110820DC088819981009711F00E9452
:1005F0001708198218821D821C821B821A820BC066
:100600001D830C83B701DF91CF911F910F91FF9054
:10061000EF900C948709DF91CF911F910F91FF907C
:10062000EF9008950E9479091F920F920FB60F92D2
:1006300011242F933F934F935F936F937F938F93E7
:100640009F93AF93BF93EF93FF9380918701909116
:100650008801A0918901B0918A01892B8A2B8B2B6B
:1006600059F180918601E0918401F091850190819A
:10067000892780838091870190918801A0918901C9
:10068000B0918A01181619061A061B060CF03DC017
:100690008091870190918801A0918901B0918A0190
:1006A0000197A109B1098093870190938801A093D4
:1006B0008901B0938A0129C080910001E6E8F0E049
:1006C000E4919FEF90930001E130B9F098F0E230AF
:1006D000C9F4909170009D7F9093700091E0909389
:1006E000B0009091B100987F94609093B100109207
:1006F000B30008C010926E0005C090916F009D7FFE
:1007000090936F0060E00E949401FF91EF91BF9180
:10071000AF919F918F917F916F915F914F913F9199
:100720002F910F900FBE0F901F9018951F920F9250
:100730000FB60F9211242F933F934F935F936F93B4
:100740007F938F939F93AF93BF93EF93FF938BE828
:1007500091E00E940001FF91EF91BF91AF919F91B5
:100760008F917F916F915F914F913F912F910F905A
:100770000FBE0F901F9018951F920F920FB60F92F9
:1007800011242F938F939F93EF93FF93E0919B01FD
:10079000F0919C018081E091A101F091A20182FD84
:1007A00012C090818091A4018F5F8F732091A50169
:1007B000821751F0E091A401F0E0E557FE4F958FCC
:1007C0008093A40101C08081FF91EF919F918F914F
:1007D0002F910F900FBE0F901F9018951F920F92A0
:1007E0000FB60F9211242F933F938F939F93AF9344
:1007F000BF9380917B0190917C01A0917D01B0918C
:100800007E0130917A0123E0230F2D3720F40196E9
:10081000A11DB11D05C026E8230F0296A11DB11D23
:1008200020937A0180937B0190937C01A0937D01BA
:10083000B0937E018091760190917701A09178012B
:10084000B09179010196A11DB11D8093760190931D
:100850007701A0937801B0937901BF91AF919F91F7
:100860008F913F912F910F900FBE0F901F90189571
:100870001F920F920FB60F9211242F933F934F9315
:100880005F936F937F938F939F93AF93BF93EF93F8
:10089000FF93E0918101F0918201309709F451C0FA
:1008A000968DA685B785858591FF04C09C91892387
:1008B00029F447C09C91892309F043C0A389B489D6
:1008C0009C918589809589238C9386899789019746
:1008D000F1F7608D718DA685B785558538E020E0EC
:1008E000CB010197F1F7822F90E095958795282FFE
:1008F0004C91452309F02068315091F7868D81FD98
:1009000020958091800190E001968F739927309116
:100910007F01381749F0A0918001B0E0AA5CBE4F7A
:100920002C938093800103C0868D8160868F828D99
:10093000938D0197F1F7A389B4899C918589892BBF
:100940008C93FF91EF91BF91AF919F918F917F9188
:100950006F915F914F913F912F910F900FBE0F902C
:100960001F901895CF93DF9310928E0110928D01F6
:1009700088EE93E0A0E0B0E080938F019093900127
:10098000A0939101B09392012BE031E030938C0160
:1009900020938B0125EC30E0309398012093970150
:1009A00024EC30E030939A012093990120EC30E060
:1009B00030939C0120939B0121EC30E030939E0109
:1009C00020939D0122EC30E03093A00120939F0101
:1009D00026EC30E03093A2012093A1011092A401F3
:1009E0001092A5011092A6011092A7011092550233
:1009F000109254028093560290935702A09358028B
:100A0000B09359028DE191E090935302809352028A
:100A1000109269021092680210926B0210926A02A0
:100A200010926D0210926C0210926F0210926E0280
:100A3000609170026E7F6D7F609370026695617049
:100A400081E0682785E00E94940161E085E00E94D2
:100A5000E001E4EBF0E0E491E0936202E0EAF0E030
:100A6000E491F0E0EE0FFF1FE957FF4F859194915D
:100A7000909364028093630260E084E00E94E0014E
:100A80008091700281FD04C061E084E00E949401C5
:100A900084E080935E02E3EBF0E0E491E0935F0298
:100AA000EFE9F0E0E491F0E0EE0FFF1FEF56FF4FAB
:100AB0008591949190936102809360026BE271E062
:100AC0008CE492E00E94C6026BE271E086E492E060
:100AD0000E94C602CEE2D2E06BE271E0CE010E943B
:100AE000C602269682E0C634D807B1F76BE271E001
:100AF00088E292E0DF91CF910C94C602789484B59D
:100B0000826084BD84B5816084BD85B5826085BD09
:100B100085B5816085BD80916E00816080936E0097
:100B20001092810080918100826080938100809189
:100B3000810081608093810080918000816080933A
:100B400080008091B10084608093B1008091B000FA
:100B500081608093B00080917A00846080937A00F5
:100B600080917A00826080937A0080917A0081601F
:100B700080937A0080917A00806880937A00109246
:100B8000C100E0919B01F0919C0182E08083E091A3
:100B90009701F09198011082E0919901F0919A01EA
:100BA00087E680831092A301E0919F01F091A0015C
:100BB00086E08083E0919D01F0919E0180818061BB
:100BC0008083E0919D01F0919E0180818860808307
:100BD000E0919D01F0919E01808180688083E09189
:100BE0009D01F0919E0180818F7D808310926D0226
:100BF00010926C0210926B0210926A0210926902BB
:100C0000109268028DEC90E090936F0280936E02D8
:100C100090915E02963108F057C025E530E03093A0
:100C20006902209368022BEC30E030936B02209332
:100C30006A0220E930E030936D0220936C0220912B
:100C40006800983050F031E09E3008F430E081E0E8
:100C500001C0880F3A95EAF701C084E0822B8093A7
:100C60006800983038F09E3040F0963148F020E02F
:100C700030E008C02DE630E005C02BE630E002C0D1
:100C80002CE630E03093660220936502983030F411
:100C900081E001C0880F9A95EAF70EC0292F30E055
:100CA0009E3018F42850310902C02E50310981E0DD
:100CB00001C0880F2A95EAF78093670280916E023F
:100CC00090916F020197F1F780916C0290916D0203
:100CD000892B49F1E0918101F091820182E0E235B6
:100CE000F80709F1309739F0A389B4899C91858977
:100CF000809589238C93809170028E7F80937002FF
:100D00001092800110927F0182E592E0909382011F
:100D100080938101E0916502F0916602908180915B
:100D20006702892B808361E08AE00E94E00161E034
:100D30008BE00E94E00160E086E00E94E00160E05C
:100D40008FE00E94E00160E080E10E94E00160E04D
:100D50008AE00E94940160E08BE00E94940110926E
:100D600083018BE891E00E94EA00892B81F08BE8F7
:100D700091E00E94C800E0915202F091530201906C
:100D8000F081E02D682F82E592E00995EACF82E5B7
:100D900092E00E948902892B81F082E592E00E9414
:100DA000A102E0918B01F0918C010190F081E02D86
:100DB000682F8BE891E00995EACF0E948A01D1CF94
:100DC000CF93DF9380912802909129020E94170807
:100DD000C6E4D2E02697888199810E94170882E0B4
:100DE000CE32D807B9F780914602909147020E940F
:100DF000170880914C0290914D020E9417088DE1D6
:100E000091E09093530280935202809181019091DE
:100E100082018255924071F4E0916502F091660280
:100E2000908180916702809589238083109282014E
:100E300010928101DF91CF9108952F923F924F92AE
:100E40005F926F927F928F929F92AF92BF92CF925A
:100E5000DF92EF92FF920F931F93CF93DF93CDB763
:100E6000DEB7CA1BDB0B0FB6F894DEBF0FBECDBFDB
:100E700009942A88398848885F846E847D848C84AC
:100E80009B84AA84B984C884DF80EE80FD800C81B5
:100E90001B81AA81B981CE0FD11D0FB6F894DEBF98
:100EA0000FBECDBFED01089597FB072E16F40094F9
:100EB00007D077FD09D00E94680707FC05D03EF4F3
:100EC000909581959F4F0895709561957F4F0895F6
:100ED000AA1BBB1B51E107C0AA1FBB1FA617B70760
:100EE00010F0A61BB70B881F991F5A95A9F780957C
:100EF0009095BC01CD010895EE0FFF1F0590F49170
:100F0000E02D0994CF93DF938230910510F482E0B5
:100F100090E0E0917302F091740220E030E0C0E0D4
:100F2000D0E0309711F14081518148175907C0F046
:100F30004817590761F482819381209719F09B83A8
:100F40008A832BC0909374028093730226C021156C
:100F5000310519F04217530718F49A01BE01DF0159
:100F6000EF010280F381E02DDCCF2115310509F17D
:100F7000281B390B2430310590F412968D919C91E9
:100F800013976115710521F0FB019383828304C0DF
:100F90009093740280937302FD01329644C0FD0168
:100FA000E20FF31F81939193225031092D933C93CB
:100FB0003AC02091710230917202232B41F42091AA
:100FC0000301309104013093720220937102209149
:100FD0000101309102012115310541F42DB73EB7D1
:100FE0004091050150910601241B350BE0917102DF
:100FF000F0917202E217F307A0F42E1B3F0B2817A3
:10100000390778F0AC014E5F5F4F2417350748F081
:101010004E0F5F1F50937202409371028193919320
:1010200002C0E0E0F0E0CF01DF91CF9108950F938F
:101030001F93CF93DF93009709F48CC0FC01329784
:10104000138212820091730210917402011511052E
:1010500081F420813181820F931F209171023091A0
:1010600072022817390779F5F0937202E093710242
:1010700071C0D80140E050E0AE17BF0750F412969F
:101080002D913C911397AD012115310509F1D9013D
:10109000F3CF9D01DA013383228360817181860F52
:1010A000971F8217930769F4EC0128813981260F75
:1010B000371F2E5F3F4F318320838A819B8193832B
:1010C0008283452B29F4F0937402E093730242C0AB
:1010D0001396FC93EE931297ED01499159919E015D
:1010E000240F351FE217F30771F480819181840F7B
:1010F000951F029611969C938E93828193811396ED
:101100009C938E931297E0E0F0E0D80112968D91B7
:101110009C911397009719F0F8018C01F6CF8D91EF
:101120009C9198012E5F3F4F820F931F2091710277
:10113000309172022817390769F4309729F4109218
:1011400074021092730202C0138212821093720210
:1011500000937102DF91CF911F910F910895A0E04C
:10116000B0E0E5EBF8E00C942107EC01009721F4E6
:10117000CB010E948207B8C0FC01E60FF71F9C015B
:1011800022503109E217F30708F4ACC0D9010D91E0
:101190001C91119706171707B0F00530110508F4D8
:1011A0009FC0C80104978617970708F499C002509A
:1011B0001109061B170B019311936D937C93CF01BB
:1011C0000E9417088DC05B01A01AB10A4C01800E65
:1011D000911EA0917302B091740240E050E0E12CA6
:1011E000F12C109709F44AC0A815B905D1F56D90F6
:1011F0007C901197630182E0C80ED11CCA14DB04F5
:1012000080F1A3014A195B096A0182E0C80ED11C72
:101210001296BC9012971396AC91B5E0CB16D10400
:1012200040F0B282A38351834083D9016D937C93B4
:101230000AC00E5F1F4FC301800F911FF9019183F8
:101240008083EB2DFA2FE114F10431F0D7011396CE
:10125000FC93EE93129744C0F0937402E0937302F0
:101260003FC08D919C9111974817590708F4AC0124
:101270007D0112960D90BC91A02DB3CF809171028B
:101280009091720288159905E1F446175707C8F442
:101290008091010190910201009741F48DB79EB7B2
:1012A0004091050150910601841B950BE817F90741
:1012B000C8F4F0937202E0937102F90171836083C4
:1012C0000FC0CB010E9482077C01009759F0A80152
:1012D000BE010E947E09CE010E941708C70104C00A
:1012E000CE0102C080E090E0CDB7DEB7EEE00C9416
:1012F0003D0781E090E0F8940C948E09FB01DC013D
:1013000002C001900D9241505040D8F70895FB0162
:10131000DC0101900D920020E1F7089510E0C3E692
:10132000D0E004C0FE010E947C072196C436D1079C
:06133000C9F7F894FFCF9D
:10133600FF0000750280000000000021018E00B948
:10134600006801EA00C800DC000000000035028EDB
:0C13560000C30234028902A1021C020044
:107E0000112484B714BE81FFF0D085E080938100F7
:107E100082E08093C00088E18093C10086E0809377
:107E2000C20080E18093C4008EE0C9D0259A86E02C
:107E300020E33CEF91E0309385002093840096BBD3
:107E4000B09BFECF1D9AA8958150A9F7CC24DD24C4
:107E500088248394B5E0AB2EA1E19A2EF3E0BF2EE7
:107E6000A2D0813461F49FD0082FAFD0023811F036
:107E7000013811F484E001C083E08DD089C08234E0
:107E800011F484E103C0853419F485E0A6D080C0E4
:107E9000853579F488D0E82EFF2485D0082F10E0AE
:107EA000102F00270E291F29000F111F8ED06801E7
:107EB0006FC0863521F484E090D080E0DECF843638
:107EC00009F040C070D06FD0082F6DD080E0C81688
:107ED00080E7D80618F4F601B7BEE895C0E0D1E017
:107EE00062D089930C17E1F7F0E0CF16F0E7DF06D8
:107EF00018F0F601B7BEE89568D007B600FCFDCFD4
:107F0000A601A0E0B1E02C9130E011968C91119780
:107F100090E0982F8827822B932B1296FA010C0160
:107F200087BEE89511244E5F5F4FF1E0A038BF0790
:107F300051F7F601A7BEE89507B600FCFDCF97BE46
:107F4000E89526C08437B1F42ED02DD0F82E2BD052
:107F50003CD0F601EF2C8F010F5F1F4F84911BD097
:107F6000EA94F801C1F70894C11CD11CFA94CF0C13
:107F7000D11C0EC0853739F428D08EE10CD085E9AC
:107F80000AD08FE07ACF813511F488E018D01DD067
:107F900080E101D065CF982F8091C00085FFFCCF94
:107FA0009093C60008958091C00087FFFCCF809118
:107FB000C00084FD01C0A8958091C6000895E0E648
:107FC000F0E098E1908380830895EDDF803219F02E
:107FD00088E0F5DFFFCF84E1DECF1F93182FE3DFCA
:107FE0001150E9F7F2DF1F91089580E0E8DFEE27F6
:047FF000FF270994CA
:027FFE00040479
:0400000300007E007B
:00000001FF