:100000000C9464000C94E7030C94C0030C940E044D
:100010000C940E040C940E040C948C000C949B0D08
:100020000C948C000C948C000C948C000C948C0020
:100030000C948C000C948C000C948C000C948C0010
:100040000C9476030C948C000C9491010C946B012D
:100050000C948C000C948C000C948C000C948C00F0
:100060000C948C000C948C0000000008000201002D
:100070000003040700000000000000000000000072
:10008000240027002A000200000000250028002B81
:1000900000000000002300260029000404040404DA
:1000A0000404040202020202020303030303030125
:1000B00002040810204080010204081020010204FC
:1000C00008102000BA128E1211241FBECFEFD8E004
:1000D000DEBFCDBF24E0ACE1B3E001C01D92A0368D
:1000E000B207E1F713E0A0E0B1E0E4E7FDE202C00F
:1000F00005900D92AC31B107D9F710E0C3E6D0E01E
:1001000004C02197FE010E948114C236D107C9F7AD
:100110000E94420E0C94AD160C940000FC01538D0D
:10012000448D252F30E0842F90E0821B930B5417D1
:1001300010F0CF96089501970895FC01918D828D5E
:10014000981761F0828DDF01A80FB11D5D968C912B
:10015000928D9F5F9F73928F90E008958FEF9FEF36
:100160000895FC01918D828D981731F0828DE80FF2
:10017000F11D858D90E008958FEF9FEF0895FC01AC
:10018000918D228D892F90E0805C9F4F821B910979
:100190008F739927089583E793E00E94BF0021E0C1
:1001A000892B09F420E0822F0895FC01848DDF0162
:1001B000A80FB11DA35ABF4F2C91848D90E00196DA
:1001C0008F739927848FA689B7892C93A089B189C9
:1001D0008C9180648C93938D848D981306C00288D3
:1001E000F389E02D80818F7D80830895EF92FF92C7
:1001F0000F931F93CF93DF93EC0181E0888F9B8D4A
:100200008C8D981305C0E889F989808185FD24C00B
:10021000F62E0B8D10E00F5F1F4F0F731127E02E8E
:100220008C8DE8120CC00FB607FCFACFE889F9896B
:10023000808185FFF5CFCE010E94D500F1CF8B8D57
:10024000FE01E80FF11DE35AFF4FF0820B8FEA89A0
:10025000FB898081806207C0EE89FF896083E8891D
:10026000F98980818064808381E090E0DF91CF9183
:100270001F910F91FF90EF900895CF93DF93EC01C2
:10028000888D8823C9F0EA89FB89808185FD05C0B6
:10029000A889B9898C9186FD0FC00FB607FCF5CFF0
:1002A000808185FFF2CFA889B9898C9185FFEDCF38
:1002B000CE010E94D500E7CFDF91CF91089580E075
:1002C00090E0892B29F00E94CB0081110C94000052
:1002D00008950E947E161F920F920FB60F9211245E
:1002E0002F933F934F935F936F937F938F939F933E
:1002F000AF93BF93EF93FF9383E793E00E94D50002
:10030000FF91EF91BF91AF919F918F917F916F91ED
:100310005F914F913F912F910F900FBE0F901F90C3
:1003200018951F920F920FB60F9211242F938F934F
:100330009F93EF93FF93E0918303F0918403808177
:10034000E0918903F0918A0382FD12C0908180912F
:100350008C038F5F8F7320918D03821751F0E09192
:100360008C03F0E0ED58FC4F958F80938C0301C017
:100370008081FF91EF919F918F912F910F900FBEF0
:100380000F901F9018953FB7F89480916F0390914C
:100390007003A0917103B091720326B5A89B05C0AC
:1003A0002F3F19F00196A11DB11D3FBFBA2FA92FF4
:1003B000982F8827820F911DA11DB11DBC01CD0171
:1003C00042E0660F771F881F991F4A95D1F708955D
:1003D000089520911E0330911F032817390771F4E7
:1003E00090911C0380911D03981741F0E0911C032C
:1003F000F0E0E65DFC4F808190E008958FEF9FEF85
:10040000089508951F93CF93DF93DC015C962D919F
:100410003C915D972115310539F481E090E0139608
:100420009C938E9312973DC05196ED91FC915297FB
:1004300050969C915097892F80951FB75E964C914E
:100440005E9741FB772770F941FD6095F8944081F4
:10045000772311F0492B01C048234083E9012197FC
:10046000F1F748E0508160FF02C0592B01C05823CA
:100470005083E9012197F1F76695415099F7772369
:1004800021F090818923808303C08081982B908301
:100490001FBF5C968D919C915D970197F1F721E0CC
:1004A00030E0C901DF91CF911F91089520911E0383
:1004B00030911F032817390771F480911D03209193
:1004C0001C0390E0805C9F4F821B910960E470E008
:1004D0000E941814089580E090E0089520911E0372
:1004E00030911F0328173907B9F490911C038091AC
:1004F0001D03981789F0E0911C03F0E0E65DFC4FC6
:10050000808120911C0330E02F5F3F4F2F733327F2
:1005100020931C0390E008958FEF9FEF08950895B6
:1005200080E090E00895F89483E090E090932403B5
:10053000809323030895833081F028F4813099F06B
:100540008230A1F008958730A9F08830B9F0843066
:10055000D1F4809180008F7D03C0809180008F77DF
:1005600080938000089584B58F7702C084B58F7D15
:1005700084BD08958091B0008F7703C08091B00052
:100580008F7D8093B00008951F93CF93DF93282F22
:1005900030E0F901E859FF4F8491F901E155FF4F2F
:1005A000D491F901E556FF4FC491CC23C9F0162F21
:1005B00081110E949B02EC2FF0E0EE0FFF1FE95724
:1005C000FF4FA591B4918FB7F894111105C09C917C
:1005D000ED2FE095E92302C0EC91ED2BEC938FBF5A
:1005E000DF91CF911F910895CF93DF9390E0FC01AD
:1005F000E155FF4F2491FC01E556FF4F849188237C
:1006000061F190E0880F991FFC01E458FF4FC591FC
:10061000D491FC01E957FF4FA591B491611109C034
:100620009FB7F8948881209582238883EC912E23AC
:100630000BC0623061F49FB7F8943881822F8095A7
:1006400083238883EC912E2B2C939FBF06C08FB7FA
:10065000F894E8812E2B28838FBFDF91CF910895E6
:100660008F929F92AF92BF92CF92DF92EF92FF92C2
:100670006B017C010E94C3014B015C01C114D104D8
:10068000E104F104F1F00E94C301DC01CB018819FF
:100690009909AA09BB09883E9340A105B10570F3E9
:1006A00021E0C21AD108E108F10888EE880E83E043
:1006B000981EA11CB11CC114D104E104F10419F766
:1006C000DDCFFF90EF90DF90CF90BF90AF909F90E5
:1006D0008F9008952FB7F89460916B0370916C031D
:1006E00080916D0390916E032FBF08951F920F921A
:1006F0000FB60F9211242F933F938F939F93AF9335
:10070000BF9380916B0390916C03A0916D03B091A6
:100710006E0330916A0323E0230F2D3720F40196F6
:10072000A11DB11D05C026E8230F0296A11DB11D14
:1007300020936A0380936B0390936C03A0936D03E3
:10074000B0936E0380916F0390917003A091710339
:10075000B09172030196A11DB11D80936F03909318
:100760007003A0937103B0937203BF91AF919F91F7
:100770008F913F912F910F900FBE0F901F90189562
:100780001F920F920FB60F9211242F933F934F9306
:100790005F936F937F938F939F93AF93BF93EF93E9
:1007A000FF93E0910201F09103010995FF91EF9110
:1007B000BF91AF919F918F917F916F915F914F9179
:1007C0003F912F910F900FBE0F901F9018951F9281
:1007D0000F920FB60F9211242F933F934F935F9375
:1007E0006F937F938F939F93AF93BF93EF93FF93F9
:1007F000E0910001F09101010995FF91EF91BF9106
:10080000AF919F918F917F916F915F914F913F91A8
:100810002F910F900FBE0F901F9018951F920F925F
:100820000FB60F9211242F933F934F935F936F93C3
:100830007F938F939F93AF93BF93EF93FF93E09139
:100840001E03F0911F03309709F451C0968DA685C1
:10085000B785858591FF04C09C91892329F447C001
:100860009C91892309F043C0A389B4899C9185890F
:10087000809589238C93868997890197F1F7608DFC
:10088000718DA685B785558538E020E0CB010197AD
:10089000F1F7822F90E095958795282F4C9145236D
:1008A00009F02068315091F7868D81FD2095809167
:1008B0001D0390E001968F73992730911C03381720
:1008C00049F0A0911D03B0E0A65DBC4F2C9380932E
:1008D0001D0303C0868D8160868F828D938D019765
:1008E000F1F7A389B4899C918589892B8C93FF9119
:1008F000EF91BF91AF919F918F917F916F915F9198
:100900004F913F912F910F900FBE0F901F90189510
:10091000CF92DF92EF92FF92CF93DF93EB0157FFDD
:1009200002C04D5F5F4F6A01D594C794D594C794B8
:100930000D2C000CEE08FF08B701A6010E947C09EF
:10094000C701B6010E943003B701A601CE010E9483
:100950007C09C701B601DF91CF91FF90EF90DF9046
:10096000CF900C943003CF93DF93EC0160E372E0FF
:100970000E94210D63EC71E0CE010E949D0C6AEC97
:1009800071E0CE010E949D0C61ED71E0CE010E94EC
:100990009D0C6DEE71E0CE010E949D0C65EF71E043
:1009A000CE010E949D0C6CEF71E0CE010E949D0C67
:1009B0006AE172E0CE010E949D0C62E272E0CE011B
:1009C0000E949D0CCE01DF91CF910895CF93DF93CC
:1009D00000D000D000D0CDB7DEB788E294E00E940E
:1009E000560218161906FCF4809120038823B1F0F2
:1009F000CE0101960E94780DBE016F5F7F4F80E1AE
:100A000094E00E94DA0CCE0101960E94130D60E181
:100A100074E083E793E00E941D0EDFCF88E294E04C
:100A20000E946E02DACF26960FB6F894DEBF0FBE94
:100A3000CDBFDF91CF910895EF92FF920F931F9357
:100A4000CF93DF9300D000D000D0CDB7DEB77C01CC
:100A500060E372E080E194E00E94AC0C80911404A9
:100A600090911504892BB9F488E294E00E94560213
:100A7000181619069CF7CE0101960E94780DBE014A
:100A80006F5F7F4F80E194E00E94DA0CCE01019607
:100A90000E94130DE3CF0091100410911104F7018F
:100AA00060817181C8010E9493160097E9F29C0150
:100AB000201B310B37FDD8CF80912003882331F0E4
:100AC00060E174E083E793E00E941D0E0E94E6045B
:100AD00026960FB6F894DEBF0FBECDBFDF91CF9143
:100AE0001F910F91FF90EF9008950F931F93CF9355
:100AF000DF9300D000D000D0CDB7DEB78C016AE222
:100B000072E0CE0101960E94210DB801CE0101963E
:100B10000E948A0CBC0188E294E00E941D0ECE0166
:100B200001960E94130D26960FB6F894DEBF0FBEF5
:100B3000CDBFDF91CF911F910F9108950F931F9318
:100B4000CF93DF9300D000D000D0CDB7DEB78C01BB
:100B50006EE272E0CE0101960E94210DB801CE0135
:100B600001960E948A0C6EE272E00E94710CFC01F8
:100B7000448155816081718183E793E00E9473080D
:100B8000CE0101960E94130D26960FB6F894DEBF93
:100B90000FBECDBFDF91CF911F910F910895CF93DD
:100BA000DF93CDB7DEB7E0970FB6F894DEBF0FBE88
:100BB000CDBF61E372E0CE0101960E94210DCE010E
:100BC00001960E947505CE0101960E94130D64ECFA
:100BD00072E0CE0101960E94210DCE0101960E9485
:100BE0001C05CE0101960E94130D80912303909164
:100BF00024031CA61BA61EA61DA618AA1FA64AE013
:100C0000BE016F5F7F4F0E947C13BE016F5F7F4FFD
:100C1000CE018B960E94AC0C6AE372E0CE01019685
:100C20000E94210DBE01655D7F4FCE0101960E949D
:100C30008A0C6DE672E00E94710CBC01CE018596B3
:100C40000E94180DCE0101960E94130D67E772E015
:100C5000CE014F960E94210DBE016B5D7F4FCE01EC
:100C600001960E94180D6EE272E0CE0101960E947C
:100C7000710CBE01615E7F4F0E948A0C6EE272E0D1
:100C80000E94710CBC018CE194E00E94C30CCE0167
:100C900001960E94130DBE016B5D7F4FCE014396FE
:100CA0000E94180DBE01615E7F4FCE0143960E94E7
:100CB0008A0CFC01848195811A8E198E1C8E1B8EE4
:100CC0001E8E1D8E4AE0BE016F5F7F4F06960E940A
:100CD0008713BE016F5F7F4FCE0149960E94AC0C17
:100CE000CE0143960E94130D6CE872E0CE0101968E
:100CF0000E94210DCE0101960E947505CE0101963C
:100D00000E94130D6FEA72E0CE0101960E94210D40
:100D1000CE0101960E941C05CE0101960E94130D82
:100D200066EB72E0CE0143960E94210DBE01675E24
:100D30007F4FCE0143960E948A0CBC01CE010196E2
:100D40000E94180DCE0101960E947505CE010196F4
:100D50000E94130DCE0143960E94130D68E172E0CC
:100D6000CE0101960E94210DCE0101960E941C0524
:100D7000CE0101960E94130D6CE174E088E294E0CC
:100D80000E941D0E6FEB72E0CE0101960E94210DB4
:100D9000CE0101960E941C05CE0101960E94130D02
:100DA00067EC72E0CE0101960E94210DCE01019602
:100DB0000E947505CE0101960E94130D60ED72E050
:100DC000CE0101960E94210DCE0101960E941C05C4
:100DD000CE0101960E94130DCE0149960E94130D7B
:100DE000CE014F960E94130DCE0185960E94130DE1
:100DF000CE018B960E94130D6FE271E0CE01019639
:100E00000E94210DCE0101960E947505CE0101962A
:100E10000E94130D68EB7BE080E090E00E943003BD
:100E20000E94E60463E371E0CE0101960E94210D69
:100E3000CE0101960E947505CE0101960E94130D08
:100E400064EC72E0CE0101960E94210DCE01019664
:100E50000E941C05CE0101960E94130D6CE371E007
:100E6000CE0101960E94210DCE0101960E947505CA
:100E7000CE0101960E94130D64EC72E0CE01019642
:100E80000E94210DCE0101960E941C05CE01019603
:100E90000E94130D67ED72E0CE0101960E94210DB4
:100EA000CE0101960E949E05CE0101960E94130D6F
:100EB000E0960FB6F894DEBF0FBECDBFDF91CF91A5
:100EC0000895CF93DF93CDB7DEB7AA970FB6F89406
:100ED000DEBF0FBECDBFBC01CE014F960E94180DE4
:100EE00080912103909122031A8E198E1C8E1B8EE5
:100EF0001E8E1D8E4AE0BE016F5F7F4F0E947C13E5
:100F0000BE016F5F7F4FCE0149960E94AC0C8BA152
:100F10009CA11C8A1B8A1E8A1D8A188E1F8A4AE081
:100F2000BE016F5F7F4F0E948713BE016F5F7F4FCF
:100F3000CE0143960E94AC0C66EB72E0CE010196A6
:100F40000E94210DBE01675E7F4FCE0101960E9477
:100F50008A0C60E771E00E94710CBE016D5E7F4FEC
:100F60000E948A0CBC018CE194E00E94C30CCE016B
:100F700001960E94130D6CE174E0CE0101960E946F
:100F8000180DCE0101960E947505CE0101960E94B2
:100F9000130D68E172E0CE0101960E94210DCE0191
:100FA00001960E941C05CE0101960E94130D4BA1D3
:100FB0005CA16F8D78A188E294E00E9473086FEBCA
:100FC00072E0CE0101960E94210DCE0101960E9491
:100FD0001C05CE0101960E94130D61EF72E0CE0157
:100FE00001960E94210DBE01675E7F4FCE010196E2
:100FF0000E948A0CBC01CE0185960E94180DCE017C
:1010000085960E947505CE0185960E94130DCE012E
:1010100001960E94130D64EC72E0CE0101960E94CD
:10102000210DCE0101960E941C05CE0101960E9461
:10103000130D6BEF72E0CE0101960E94210DCE01DF
:1010400001960E949E05CE0101960E94130DCE01CD
:1010500043960E94130DCE0149960E94130DCE01B6
:101060004F960E94130DAA960FB6F894DEBF0FBEDE
:10107000CDBFDF91CF910895CF93DF9300D000D003
:1010800000D0CDB7DEB764EC72E0CE0101960E94CD
:10109000210DCE0101960E946107CE0101960E94AA
:1010A000130D40E951E068E572E080E991E00E94AB
:1010B00088046DE073E0CE0101960E94210DCE01FF
:1010C00001960E949E05CE0101960E94130D0E947A
:1010D000E60426960FB6F894DEBF0FBECDBFDF91B3
:1010E000CF9108950895CF92DF92EF92FF920F93E0
:1010F0001F93CF93DF936C017A018B01C0E0D0E0A6
:10110000CE15DF0589F0D8016D918D01D601ED91E5
:10111000FC910190F081E02DC6010995892B11F415
:101120007E0102C02196ECCFC701DF91CF911F91C4
:101130000F91FF90EF90DF90CF9008950F931F9342
:101140000E946A03609330047093310480933204E8
:1011500090933304E0912804F09129040284F385EC
:10116000E02D88E294E0099597FF1FC00E946A0372
:1011700000913004109131042091320430913304F5
:10118000DC01CB01801B910BA20BB30B00912C0453
:1011900010912D0420912E0430912F048017910777
:1011A000A207B307B8F28FEF9FEF1F910F91089539
:1011B000CF93DF93EC0188819981009711F00E9411
:1011C0001C15198218821D821C821B821A82DF91D3
:1011D000CF9108950F931F93CF93DF93EC018881F4
:1011E0009981009729F02A813B812617370788F4D7
:1011F0008B016F5F7F4F0E94B415009761F0998358
:1012000088831B830A832C813D81232B11F4FC01ED
:10121000108281E001C080E0DF91CF911F910F919A
:101220000895EF92FF920F931F93CF93DF93FC01EA
:10123000248135816115710511F480E019C04115D3
:101240005105A9F07B01EC018A01020F131FB801BF
:101250000E94EA08882389F3288139818C819D8145
:10126000B701820F931F0E948C161D830C8381E0AF
:10127000DF91CF911F910F91FF90EF900895EF9222
:10128000FF920F931F93CF93DF93EC017B018A01B1
:10129000BA010E94EA08811104C0CE010E94D80858
:1012A00007C01D830C83B701888199810E948C1629
:1012B000CE01DF91CF911F910F91FF90EF90089594
:1012C000CF93DF932091140430911504232B79F0F0
:1012D000FC01C0911004D091110460817181CE0194
:1012E0000E949316009719F08C1B9D0B02C08FEF84
:1012F0009FEFDF91CF9108953F924F925F926F924F
:101300007F928F929F92AF92BF92CF92DF92EF9295
:10131000FF920F931F93CF93DF9300D000D0CDB7F0
:10132000DEB7209104012A3021F02F3F09F02CC2B2
:1013300004C0E6E8F0E0349076C02AE0209304018F
:10134000E6E8F0E0E491EF3F09F41EC2E13011F16C
:10135000E23009F443C0E11165C014BC15BC24B5EA
:10136000226024BD25B5216025BDE5EAF0E0E491C9
:10137000F0E0EE0FFF1FE957FF4F259134913093B6
:101380004F0420934E04E9EBF0E0E491E0934D0428
:10139000312C4BC01092800010928100209181006E
:1013A000286020938100209181002160209381009A
:1013B000E5EAF0E0E491F0E0EE0FFF1FE957FF4FA0
:1013C0002591349130934C0420934B04E9EBF0E0E9
:1013D000E491E0934A043324339427C01092B00080
:1013E0001092B1002091B00022602093B0002091B3
:1013F000B10021602093B100E5EAF0E0E491F0E073
:10140000EE0FFF1FE957FF4F2591349130934904A8
:1014100020934804E9EBF0E0E491E0934704B2E064
:101420003B2E03C03E2E37FCAFC12A013B018C018D
:1014300061E08AE00E94F4024801A12CB12C832DC6
:101440008D7F09F0BBC060E072E18AE790E0A50102
:1014500094010E944E1429833A834B835C83690173
:101460007A0121E0C21AD108E108F1088FEFC8160D
:10147000D104E104F10409F008F44CC060E472E422
:101480008FE090E0A50194010E944E1469017A0159
:10149000E1E0CE1AD108E108F108F2E03F1220C0E5
:1014A0002FEFC216D104E104F10409F008F46AC177
:1014B00060E970ED83E090E0A50194010E944E1474
:1014C00069017A0181E0C81AD108E108F108EFEF5B
:1014D000CE16D104E104F10409F0D0F583E067C031
:1014E000FFEFCF16D104E104F104B1F0A8F068E4F5
:1014F00078EE81E090E0A50194010E944E1469010C
:101500007A0181E0C81AD108E108F108332009F412
:10151000DFC02FC181E001C082E03320A1F047C0CD
:1015200089819A81AB81BC812AE0B595A795979571
:1015300087952A95D1F76C017D0121E0C21AD10867
:10154000E108F10885E095B5987F892B85BD6FC0CE
:1015500068E478EE81E090E0A50194010E944E14C9
:1015600069017A01F1E0CF1AD108E108F1082FEF03
:10157000C216D104E104F10409F008F4A7C064E242
:1015800074EF80E090E0A50194010E944E1469017F
:101590007A01E1E0CE1AD108E108F108FFEFCF1699
:1015A000D104E104F10411F008F0B4C085E0909199
:1015B000B100987F892B8093B10039C060E072E15F
:1015C0008AE790E0A50194010E944E1469017A0116
:1015D00081E0C81AD108E108F108C114D104E1E0A2
:1015E000EE06F10488F068E478EE81E090E0A50171
:1015F00094010E944E1469017A01F1E0CF1AD108DA
:10160000E108F10893E001C091E021E032120FC03F
:1016100080918100887F892B80938100411451043F
:101620006104710449F42FEF3FEFA9012DC041146B
:1016300051046104710471F0D801AA0FBB1FA3010A
:1016400092010E94C71328EE33E040E050E00E9470
:101650002C1403C02FEF3FEFA90181E03816A1F051
:10166000E2E03E1619F131108FC0C7BC2093580438
:101670003093590440935A0450935B0480916E0058
:10168000826080936E0080C0D0928900C0928800F2
:1016900020935404309355044093560450935704B8
:1016A00080916F00826080936F006EC0C092B30023
:1016B00020935004309351044093520450935304A8
:1016C000809170008260809370005EC084E06FCF74
:1016D000FFEFCF16D104E104F104D1F0C8F062E1CC
:1016E0007AE780E090E0A50194010E944E14690120
:1016F0007A0181E0C81AD108E108F108EFEFCE16AF
:10170000D104E104F10411F008F00ACF84E01BCF0A
:1017100083E019CF62E17AE780E090E0A5019401CF
:101720000E944E1469017A0181E0C81AD108E108CB
:10173000F108EFEFCE16D104E104F104C1F0B8F0E6
:1017400089819A81AB81BC814AE0B595A79597952F
:1017500087954A95D1F76C017D0121E0C21AD10825
:10176000E108F108332009F4EDCE87E020CF86E0D0
:10177000D4CEFFEFCF16D104E104F10409F050F606
:1017800084E0CBCE82E013CF0F900F900F900F909C
:10179000DF91CF911F910F91FF90EF90DF90CF904D
:1017A000BF90AF909F908F907F906F905F904F9081
:1017B0003F9008956F927F928F929F92AF92BF92C7
:1017C000CF92DF92EF92FF920F931F93CF93DF930D
:1017D000EC0186E0869F5001879FB00C1124AC0E6F
:1017E000BD1EFE01EA15FB0508F582819381892B58
:1017F00019F13696F7CF6081718144815581DB0103
:10180000A40FB51F2C91022E000C330B82179307E7
:1018100009F54F5F5F4F558344832281338142171F
:10182000530751F03696EA15FB0528F30E949E08EF
:1018300097FD46C0FE01F7CFEC1BFD0BF595E79534
:101840002BEA3AEAE29FC001E39F900DF29F900DD0
:10185000112438C04115510529F3E480F580970122
:101860002150310935832483DB01A20FB31FAC91D2
:101870000A2E000CBB0B8A179B07F9F421153105C2
:10188000C9F06B018A01021B130B060F171F612C95
:10189000712CD6018D906D01D8019D908D0189101C
:1018A00006C0BFEF6B1A7B0A6216730690F36216CE
:1018B000730699F6F582E482B5CF232B71F6B2CF89
:1018C0008FEF9FEFDF91CF911F910F91FF90EF90DE
:1018D000DF90CF90BF90AF909F908F907F906F9050
:1018E0000895CF93DF93EC016115710561F0FB0161
:1018F00001900020E9F73197AF01461B570B0E947A
:101900001109811103C0CE010E94D808CE01DF91D8
:10191000CF910895CF93DF93EC01FB014481558172
:10192000608171810E941109811103C0CE010E9462
:10193000D808CE01DF91CF9108956115710551F05E
:10194000FB0101900020E9F73197AF01461B570BCF
:101950000C94110980E00895CF93DF93EC01611599
:10196000710559F0FB0101900020E9F73197AF01B3
:10197000461B570B0E943F0902C00E94D808CE01A7
:10198000DF91CF910895CF93DF93EC01FB01861790
:10199000970761F0608171816115710529F04481BB
:1019A00055810E943F0902C00E94D808CE01DF91F4
:1019B000CF9108950F931F93CF93DF938C01EB0189
:1019C000FC01808191810097B1F068817981611576
:1019D000710579F0428153812C813D814217530773
:1019E00040F00E948C168C819D81F8019583848340
:1019F00013C00E941C1588819981F801918380830E
:101A00008A819B81938382838C819D81958384834A
:101A1000198218821B821A821D821C82DF91CF914B
:101A20001F910F910895FC01808191810C941C15E8
:101A3000FC011182108213821282158214820C948E
:101A4000C30CFC011182108213821282158214824F
:101A50006115710551F0FB0101900020E9F7319704
:101A6000AF01461B570B0C943F090895DF92EF928C
:101A7000FF920F931F93CF93DF937C018B01EA01B9
:101A80004617570720F4812F8A01C62FD82F60E30D
:101A900072E0C7010E94210D8091140490911504F9
:101AA00008171907E0F48C179D0708F4EC01E09182
:101AB0001004F0911104EC0FFD1FD0801082609192
:101AC000100470911104600F711FC7010E94AC0CCB
:101AD000E0911004F0911104EC0FFD1FD082C701BA
:101AE000DF91CF911F910F91FF90EF90DF900895BC
:101AF0000F931F93CF93DF9300D0CDB7DEB78C0148
:101B000060E372E00E94210D0E949E0897FD0BC0C9
:101B100089831A8241E050E0BE016F5F7F4FC801A8
:101B20000E941109F1CFC8010F900F90DF91CF9162
:101B30001F910F9108951F920F920FB60F921124CB
:101B40002F933F934F935F936F937F938F939F93C5
:101B5000AF93BF93EF93FF93809150049091510402
:101B6000A0915204B0915304892B8A2B8B2B59F1ED
:101B700080914704E0914804F091490490818927BD
:101B800080838091500490915104A0915204B091AF
:101B90005304181619061A061B060CF03DC0809156
:101BA000500490915104A0915204B09153040197B4
:101BB000A109B1098093500490935104A093520459
:101BC000B093530429C080910401E6E8F0E0E49169
:101BD0009FEF90930401E130B9F098F0E230C9F43E
:101BE000909170009D7F9093700091E09093B00071
:101BF0009091B100987F94609093B1001092B300DF
:101C000008C010926E0005C090916F009D7F909368
:101C10006F0060E00E94C402FF91EF91BF91AF910D
:101C20009F918F917F916F915F914F913F912F91F4
:101C30000F900FBE0F901F9018950F931F93CF9387
:101C4000DF93EC01E881F981DB0114964D915C9101
:101C500015976D917C910280F381E02D09958C019F
:101C6000E881F9810280F381E02D42E050E06EE2EC
:101C700072E0CE010995800F911FDF91CF911F91E6
:101C80000F910895CF93DF93CDB7DEB76F970FB65F
:101C9000F894DEBF0FBECDBF789484B5826084BD5A
:101CA00084B5816084BD85B5826085BD85B5816060
:101CB00085BD80916E00816080936E0010928100DE
:101CC0008091810082608093810080918100816099
:101CD000809381008091800081608093800080915A
:101CE000B10084608093B1008091B00081608093E6
:101CF000B00080917A00846080937A0080917A00AD
:101D0000826080937A0080917A00816080937A006B
:101D100080917A00806880937A001092C100E091EF
:101D20008303F091840382E08083E0917F03F0914C
:101D300080031082E0918103F09182038FEC808315
:101D400010928B03E0918703F091880386E08083F3
:101D5000E0918503F0918603808180618083E0912A
:101D60008503F0918603808188608083E0918503FC
:101D7000F0918603808180688083E0918503F091F3
:101D8000860380818F7D80831092430410924204E9
:101D9000109241041092400410923F0410923E04AD
:101DA00082E390E09093450480934404909134043E
:101DB000963108F057C027E030E030933F0420937D
:101DC0003E0420E330E030934104209340042BE1B3
:101DD00030E030934304209342042091680098300F
:101DE00050F031E09E3008F430E081E001C0880F0F
:101DF0003A95EAF701C084E0822B8093680098301E
:101E000038F09E3040F0963148F020E030E008C0D5
:101E10002DE630E005C02BE630E002C02CE630E0D5
:101E200030933C0420933B04983030F481E001C0AF
:101E3000880F9A95EAF70EC0292F30E09E3018F4EB
:101E40002850310902C02E50310981E001C0880FAD
:101E50002A95EAF780933D048091440490914504CB
:101E60000197F1F78091420490914304892B49F145
:101E7000E0911E03F0911F0324E0E832F20709F11C
:101E8000309739F0A389B4899C91858980958923FD
:101E90008C93809146048E7F8093460410921D039C
:101EA00010921C0388E294E090931F0380931E031A
:101EB000E0913B04F0913C04908180913D04892B9A
:101EC000808361E08AE00E94F40261E08BE00E947E
:101ED000F40261E08CE00E94F40260E082E00E9483
:101EE000F40260E08EE00E94F40260E08AE00E946A
:101EF000C40260E08BE00E94C40260E08CE00E94BB
:101F0000C40283E992E090930301809302018091DF
:101F100069008C6080936900E99A109228031092FE
:101F200025038FEF9FEF9093270380932603109252
:101F3000240310922303EAE6F0E08491E1EBF0E061
:101F40000491EDE9F0E01491112379F081110E94E0
:101F50009B02E12FF0E0EE0FFF1FEF56FF4FA59120
:101F6000B491EC91E02381E009F480E081708093EA
:101F7000290381E0809320036FE271E08E010F5FFF
:101F80001F4FC8010E94210DC8010E947505C8019C
:101F90000E94130D68EB7BE080E090E00E9430032C
:101FA0000E94E60463E371E0C8010E94210DC801AC
:101FB0000E947505C8010E94130D64EC72E0C8010F
:101FC0000E94210DC8010E941C05C8010E94130D2A
:101FD0006CE371E0C8010E94210DC8010E947505E3
:101FE000C8010E94130D64EC72E0C8010E94210D2B
:101FF000C8010E941C05C8010E94130D6BE471E02A
:10200000C8010E94210DC8010E947505C8010E94E7
:10201000130D64EC72E0C8010E94210DC8010E94FA
:102020001C05C8010E94130D40E951E068E572E00B
:1020300080E991E00E94880461E571E0C8010E9496
:10204000210DC8010E949E05C8010E94130D27E0C2
:10205000622E712C34E0E32EF12C48EEC42E41E0C8
:10206000D42E52E0A52EB12C88248A94982C88E294
:1020700094E00E945602181619060CF06BC168EE27
:1020800073E080E090E00E94300396E0592EF80162
:10209000252D11922A95E9F78CE691E09A838983A0
:1020A000E5E0F0E0FC83EB8361E070E0C8010E94B2
:1020B000DA0B892B09F043C188E294E00E946E029A
:1020C000C0979093220380932103F80111925A94B0
:1020D000E9F782E791E09A8389837C826B8261E0F1
:1020E00070E0C8010E94DA0B892B89F488E294E041
:1020F0000E946E02C0972C0191E04916510491F0A4
:10210000E2E04E165104D1F0452809F023C11092A7
:102110002803109225030E943C08F0922403E092C9
:10212000230309C00E943C0881E08093250350925C
:102130002403409223030E94CF050CC10E943C0857
:1021400060E372E0CE0149960E94210D60E372E0E7
:10215000CE0143960E94210D6AE771E0CE010796F9
:102160000E94210DCE0107960E946009AC0161E03A
:1021700070E0C8010E94360DB801CE0149960E9458
:10218000DA0CC8010E94130DCE0107960E94130DB0
:102190006AE771E0CE0107960E94210DCE010796F5
:1021A0000E9460094091140450911504BC01C801BB
:1021B0000E94360DB80180E194E00E94DA0CC8015B
:1021C0000E94130DCE0107960E94130D6CE771E07B
:1021D000CE0107960E94210DCE0107960E9460094C
:1021E0002C016DEB72E0CE010D960E94210DCE0107
:1021F0000D960E946009BC016F5F7F4FA201C8016C
:102200000E94360DB801CE0143960E94DA0CC80137
:102210000E94130DCE010D960E94130DCE0107965C
:102220000E94130DC8010E94B304C8010E946107F7
:10223000C8010E94130D6EE771E0C8010E94210DD4
:10224000BE01675E7F4FC8010E948A0C6EE771E095
:102250000E94710CBC01CE010D960E94180DC801A0
:102260000E94130D6EE771E0C8010E94210DBE01AE
:102270006D5E7F4FC8010E948A0C6EE771E00E947C
:10228000710CBC01CE0107960E94180DC8010E9476
:10229000130D60E871E0C8010E94210DBE01635F6B
:1022A0007F4FC8010E948A0C60E771E00E94710CA8
:1022B000BE01695F7F4F0E948A0CBC018CE194E0F3
:1022C0000E94C30CC8010E94130D6CE174E0C801A8
:1022D0000E94180DC8010E947505C8010E94130DC7
:1022E0006CE174E0C8010E94180DB80183E793E027
:1022F0000E941D0EC8010E94130D64EC72E0C8011B
:102300000E94210DC8010E941C05C8010E94130DE6
:10231000CE0107960E94130DCE010D960E94130D5B
:10232000CE0143960E94130DCE0149960E94130DD3
:10233000C8010E94B304C8010E94610708C067E891
:1023400071E0C8010E94210DC8010E949E05C801CC
:102350000E94130D80912503811109C04090230331
:10236000509024034114510409F053C0D4C020916B
:1023700028032F8F211114C061E08CE00E94C40259
:1023800064E670E080E090E00E94300360E08CE062
:102390000E94C40264E670E080E090E00E94300396
:1023A00083E0482E512C61E08BE00E94C40263E080
:1023B00070E080E090E00E94300360E08BE00E94DB
:1023C000C40262E070E080E090E00E94300381E0AF
:1023D000481A510841F70E946A031B012C01E8EEDC
:1023E0002E0EE3E03E1E411C511C0E946A03621542
:1023F00073058405950508F0B1CF2F8D2223A9F32D
:1024000048EE53E060E273E084EF91E00E948804BC
:10241000ECCF83E04816510409F464C097E04916F4
:10242000510409F441C0E2E04E16510409F064C0C1
:10243000109227031092260380E090E00E94B113CF
:1024400090E0009731F190932403809323038091CF
:10245000230390912403892BB9F080912603909156
:1024600027030E94B11390E09093240380932303E9
:102470000E94CF05809126039091270301969093A7
:10248000270380932603E3CF9092270380922603AD
:1024900006C050922403409223030E94CF05B092BD
:1024A0002403A092230326C01092290380912603BF
:1024B000909127030196909327038093260367E06A
:1024C0000E94B913109224031092230365E971E06E
:1024D000C8010E94210DC8010E949E05C8010E94EA
:1024E000130D0AC081E080932803E998D09203017C
:1024F000C09202010E94CF05109224031092230380
:1025000062EB71E0C8010E94210DC8010E949E0586
:10251000C8010E94130D0E945F01A9CD80E194E0E3
:102520000E94130D86E194E00E94130D8CE194E06B
:102530000E94130D82E294E00E94130D81E291E06B
:10254000909329048093280480911E0390911F0387
:102550008852944071F4E0913B04F0913C049081E6
:1025600080913D0480958923808310921F031092EF
:102570001E030895109276031092750388EE93E07F
:10258000A0E0B0E08093770390937803A093790361
:10259000B0937A032FE031E03093740320937303F8
:1025A00025EC30E03093800320937F0324EC30E06F
:1025B000309382032093810320EC30E03093840336
:1025C0002093830321EC30E030938603209385032E
:1025D00022EC30E0309388032093870326EC30E030
:1025E00030938A032093890310928C0310928D03F9
:1025F00010928E0310928F0310922B0410922A04D3
:1026000080932C0490932D04A0932E04B0932F0458
:1026100081E291E0909329048093280410923F0472
:1026200010923E0410924104109240041092430410
:1026300010924204109245041092440460914604A2
:102640006E7F6D7F609346046695617081E06827B8
:1026500085E00E94C40261E085E00E94F402E4EBA0
:10266000F0E0E491E0933804E0EAF0E0E491F0E097
:10267000EE0FFF1FE957FF4F8591949190933A0415
:102680008093390460E084E00E94F4028091460463
:1026900081FD04C061E084E00E94C40284E0809374
:1026A0003404E3EBF0E0E491E0933504EFE9F0E08B
:1026B000E491F0E0EE0FFF1FEF56FF4F85919491EC
:1026C000909337048093360460E372E082E294E0F2
:1026D0000E94210D60E372E08CE194E00E94210DE4
:1026E00060E372E086E194E00E94210D60E372E015
:1026F00080E194E00C94210DBB274A3031F49923FA
:1027000022F4BDE2909581959F4F0C948813BB27CE
:10271000FB015527AA27880F991FAA1FA41710F09D
:10272000A41B83955051B9F7A05DAA3308F0A95DA9
:10273000A193009779F7B111B1931192CB010C9449
:10274000A113DC01FC01672F71917723E1F7329728
:1027500004C07C916D9370836291AE17BF07C8F37C
:102760000895F999FECF92BD81BDF89A992780B559
:102770000895262FF999FECF1FBA92BD81BD20BDC5
:102780000FB6F894FA9AF99A0FBE019608950E942E
:102790000914A59F900DB49F900DA49F800D911DCD
:1027A000112408952F923F924F925F926F927F92E1
:1027B0008F929F92AF92BF92CF92DF92EF92FF9251
:1027C0000F931F93CF93DF93CDB7DEB7CA1BDB0BFD
:1027D0000FB6F894DEBF0FBECDBF09942A883988A2
:1027E00048885F846E847D848C849B84AA84B984A9
:1027F000C884DF80EE80FD800C811B81AA81B981B5
:10280000CE0FD11D0FB6F894DEBF0FBECDBFED01C8
:102810000895A29FB001B39FC001A39F700D811DB9
:102820001124911DB29F700D811D1124911D0895D9
:1028300097FB072E16F4009407D077FD09D00E946D
:102840006D1407FC05D03EF4909581959F4F089537
:10285000709561957F4F0895A1E21A2EAA1BBB1BAC
:10286000FD010DC0AA1FBB1FEE1FFF1FA217B3075C
:10287000E407F50720F0A21BB30BE40BF50B661F72
:10288000771F881F991F1A9469F760957095809536
:1028900090959B01AC01BD01CF010895052E97FBDA
:1028A0001EF400940E94651457FD07D00E942C145A
:1028B00007FC03D04EF40C94651450954095309568
:1028C00021953F4F4F4F5F4F08959095809570959C
:1028D00061957F4F8F4F9F4F0895AA1BBB1B51E1FE
:1028E00007C0AA1FBB1FA617B70710F0A61BB70B80
:1028F000881F991F5A95A9F780959095BC01CD0125
:102900000895EE0FFF1F0590F491E02D0994CF93E9
:10291000DF938230910510F482E090E0E0915E0454
:10292000F0915F0420E030E0C0E0D0E0309711F19A
:102930004081518148175907C0F04817590761F481
:1029400082819381209719F09B838A832BC0909377
:102950005F0480935E0426C02115310519F04217EB
:10296000530718F49A01BE01DF01EF010280F381E1
:10297000E02DDCCF2115310509F1281B390B24305E
:10298000310590F412968D919C9113976115710504
:1029900021F0FB019383828304C090935F048093B2
:1029A0005E04FD01329644C0FD01E20FF31F8193E6
:1029B0009193225031092D933C933AC020915C04AD
:1029C00030915D04232B41F42091070130910801DF
:1029D00030935D0420935C04209105013091060141
:1029E0002115310541F42DB73EB7409109015091B1
:1029F0000A01241B350BE0915C04F0915D04E217A1
:102A0000F307A0F42E1B3F0B2817390778F0AC0111
:102A10004E5F5F4F2417350748F04E0F5F1F5093EE
:102A20005D0440935C048193919302C0E0E0F0E088
:102A3000CF01DF91CF9108950F931F93CF93DF9331
:102A4000009709F48CC0FC01329713821282009126
:102A50005E0410915F040115110581F4208131811C
:102A6000820F931F20915C0430915D042817390771
:102A700079F5F0935D04E0935C0471C0D80140E007
:102A800050E0AE17BF0750F412962D913C9113976A
:102A9000AD012115310509F1D901F3CF9D01DA010D
:102AA0003383228360817181860F971F821793077A
:102AB00069F4EC0128813981260F371F2E5F3F4FC3
:102AC000318320838A819B8193838283452B29F4E0
:102AD000F0935F04E0935E0442C01396FC93EE9380
:102AE0001297ED01499159919E01240F351FE2176C
:102AF000F30771F480819181840F951F02961196DE
:102B00009C938E938281938113969C938E931297BC
:102B1000E0E0F0E0D80112968D919C911397009718
:102B200019F0F8018C01F6CF8D919C9198012E5FE0
:102B30003F4F820F931F20915C0430915D04281752
:102B4000390769F4309729F410925F0410925E04FB
:102B500002C01382128210935D0400935C04DF9123
:102B6000CF911F910F910895A0E0B0E0EAEBF5E15D
:102B70000C94D613EC01009721F4CB010E9487142A
:102B8000B8C0FC01E60FF71F9C0122503109E21783
:102B9000F30708F4ACC0D9010D911C9111970617E9
:102BA0001707B0F00530110508F49FC0C80104975D
:102BB0008617970708F499C002501109061B170BD6
:102BC000019311936D937C93CF010E941C158DC0CE
:102BD0005B01A01AB10A4C01800E911EA0915E0407
:102BE000B0915F0440E050E0E12CF12C109709F423
:102BF0004AC0A815B905D1F56D907C901197630175
:102C000082E0C80ED11CCA14DB0480F1A3014A196A
:102C10005B096A0182E0C80ED11C1296BC90129723
:102C20001396AC91B5E0CB16D10440F0B282A383E9
:102C300051834083D9016D937C930AC00E5F1F4F6F
:102C4000C301800F911FF90191838083EB2DFA2F2F
:102C5000E114F10431F0D7011396FC93EE9312972F
:102C600044C0F0935F04E0935E043FC08D919C915B
:102C700011974817590708F4AC017D0112960D9081
:102C8000BC91A02DB3CF80915C0490915D04881518
:102C90009905E1F446175707C8F480910501909112
:102CA0000601009741F48DB79EB7409109015091FC
:102CB0000A01841B950BE817F907C8F4F0935D042B
:102CC000E0935C04F901718360830FC0CB010E9423
:102CD00087147C01009759F0A801BE010E94831659
:102CE000CE010E941C15C70104C0CE0102C080E0C5
:102CF00090E0CDB7DEB7EEE00C94F21381E090E007
:102D0000F8940C94AD16FB01DC0102C001900D9209
:102D100041505040D8F70895FB01DC0101900D921D
:102D20000020E1F70895FB0151915523A9F0BF015F
:102D3000DC014D9145174111E1F759F4CD010190A6
:102D4000002049F04D9140154111C9F3FB0141119B
:102D5000EFCF81E090E00197089510E0C3E6D0E066
:102D600004C0FE010E9481142196C436D107C9F720
:042D7000F894FFCF05
:102D7400E801E801FF00006004800000000000F6A4
:102D84000073088E003D01BF009D00B100000000EB
:102D940000020273089002010256026E02E9015217
:102DA4005354004349504D55583D31004349505305
:102DB40045525645523D312C383000434946535212
:102DC400004C6973746F207061726120526563698D
:102DD400626972204F7264656E6573002B495044BA
:102DE4002C0045737461646F3D00260020002200AE
:102DF40043574A41503D004D736A204578747261CF
:102E0400EFBFBD6F004576656E746F20416C6D61D8
:102E140063656E61646F20656E204D656D6F7269C8
:102E240061004576656E746F2050726F63657361DF
:102E3400646F003C68746D6C3E003C686561643E80
:102E4400003C7469746C653E436F6E6578696F6E9F
:102E5400576966693C2F7469746C653E003C2F6841
:102E64006561643E003C626F64793E003C68313EBB
:102E7400436F6E6578696F6E2045737461626C652B
:102E8400636964613C2F68313E003C2F626F647952
:102E94003E003C2F68746D6C3E0041542B000D0ABB
:102EA400004349504D55583D3000474554202F4369
:102EB4006F6E74726F6C456C656374726966696376
:102EC40061646F722F496E73657274617244422E2D
:102ED4007068703F4D656E73616A653D00204854AB
:102EE40054502F312E3100486F73743A20313932E7
:102EF4002E3136382E34332E31303000434950537E
:102F0400544152543D22544350222C223139322E02
:102F14003136382E34332E313030222C3830004CB8
:102F2400696E6B65640043495053454E443D0053FC
:102F3400454E44204F4B00434950434C4F534500AA
:102F4400556E6C696E6B0042617365206465204444
:102F540061746F732041637475616C697A61646133
:102F640000434950434C4F53453D005265737075BF
:102F74006573746120456E7669616461004F7264A3
:0C2F8400656E205265636962696461003B
:00000001FF
